{
  "_format": "hh-sol-artifact-1",
  "contractName": "myFlash",
  "sourceName": "contracts/MyFlash.sol",
  "abi": [
    {
      "inputs": [],
      "name": "InvalidInitialization",
      "type": "error"
    },
    {
      "inputs": [],
      "name": "NotInitializing",
      "type": "error"
    },
    {
      "anonymous": false,
      "inputs": [
        {
          "indexed": false,
          "internalType": "uint64",
          "name": "version",
          "type": "uint64"
        }
      ],
      "name": "Initialized",
      "type": "event"
    },
    {
      "inputs": [],
      "name": "_camelotSwapRouter",
      "outputs": [
        {
          "internalType": "contract camelotISwapRouter",
          "name": "",
          "type": "address"
        }
      ],
      "stateMutability": "view",
      "type": "function"
    },
    {
      "inputs": [],
      "name": "_uniswapPool300",
      "outputs": [
        {
          "internalType": "contract IUniswapV3Pool",
          "name": "",
          "type": "address"
        }
      ],
      "stateMutability": "view",
      "type": "function"
    },
    {
      "inputs": [],
      "name": "_uniswapPool500",
      "outputs": [
        {
          "internalType": "contract IUniswapV3Pool",
          "name": "",
          "type": "address"
        }
      ],
      "stateMutability": "view",
      "type": "function"
    },
    {
      "inputs": [],
      "name": "addressesProvider",
      "outputs": [
        {
          "internalType": "contract ILendingPoolAddressesProvider",
          "name": "",
          "type": "address"
        }
      ],
      "stateMutability": "view",
      "type": "function"
    },
    {
      "inputs": [
        {
          "components": [
            {
              "internalType": "address",
              "name": "token",
              "type": "address"
            },
            {
              "internalType": "address",
              "name": "pairtoken",
              "type": "address"
            },
            {
              "internalType": "uint256",
              "name": "amount",
              "type": "uint256"
            },
            {
              "internalType": "uint256",
              "name": "usePath",
              "type": "uint256"
            },
            {
              "internalType": "uint256",
              "name": "path1",
              "type": "uint256"
            },
            {
              "internalType": "uint256",
              "name": "path2",
              "type": "uint256"
            }
          ],
          "internalType": "struct myFlash.FlashParams",
          "name": "params",
          "type": "tuple"
        }
      ],
      "name": "callFlash",
      "outputs": [],
      "stateMutability": "nonpayable",
      "type": "function"
    },
    {
      "inputs": [],
      "name": "camelotQuoter",
      "outputs": [
        {
          "internalType": "contract camelotIQuoter",
          "name": "",
          "type": "address"
        }
      ],
      "stateMutability": "view",
      "type": "function"
    },
    {
      "inputs": [
        {
          "internalType": "address",
          "name": "token",
          "type": "address"
        },
        {
          "internalType": "uint256",
          "name": "amount",
          "type": "uint256"
        },
        {
          "internalType": "address",
          "name": "pairToken",
          "type": "address"
        }
      ],
      "name": "estimateProfit",
      "outputs": [
        {
          "internalType": "uint256",
          "name": "",
          "type": "uint256"
        },
        {
          "internalType": "uint256[2]",
          "name": "",
          "type": "uint256[2]"
        }
      ],
      "stateMutability": "nonpayable",
      "type": "function"
    },
    {
      "inputs": [
        {
          "internalType": "address",
          "name": "asset",
          "type": "address"
        },
        {
          "internalType": "uint256",
          "name": "amount",
          "type": "uint256"
        },
        {
          "internalType": "uint256",
          "name": "premium",
          "type": "uint256"
        },
        {
          "internalType": "address",
          "name": "initiator",
          "type": "address"
        },
        {
          "internalType": "bytes",
          "name": "params",
          "type": "bytes"
        }
      ],
      "name": "executeOperation",
      "outputs": [
        {
          "internalType": "bool",
          "name": "",
          "type": "bool"
        }
      ],
      "stateMutability": "nonpayable",
      "type": "function"
    },
    {
      "inputs": [
        {
          "internalType": "address",
          "name": "token",
          "type": "address"
        },
        {
          "internalType": "uint256",
          "name": "amount",
          "type": "uint256"
        },
        {
          "internalType": "address",
          "name": "pairToken",
          "type": "address"
        }
      ],
      "name": "getEstimate",
      "outputs": [
        {
          "internalType": "uint256",
          "name": "amount0",
          "type": "uint256"
        },
        {
          "internalType": "uint256[2]",
          "name": "dexNames",
          "type": "uint256[2]"
        }
      ],
      "stateMutability": "nonpayable",
      "type": "function"
    },
    {
      "inputs": [],
      "name": "getOwner",
      "outputs": [
        {
          "internalType": "address",
          "name": "",
          "type": "address"
        }
      ],
      "stateMutability": "view",
      "type": "function"
    },
    {
      "inputs": [
        {
          "internalType": "address",
          "name": "_owner",
          "type": "address"
        },
        {
          "internalType": "address",
          "name": "_receiver",
          "type": "address"
        }
      ],
      "name": "initialize",
      "outputs": [],
      "stateMutability": "nonpayable",
      "type": "function"
    },
    {
      "inputs": [],
      "name": "lendingPool",
      "outputs": [
        {
          "internalType": "contract IPool",
          "name": "",
          "type": "address"
        }
      ],
      "stateMutability": "view",
      "type": "function"
    },
    {
      "inputs": [],
      "name": "pancakeSwapRouter",
      "outputs": [
        {
          "internalType": "contract pancakeswapISwapRouter",
          "name": "",
          "type": "address"
        }
      ],
      "stateMutability": "view",
      "type": "function"
    },
    {
      "inputs": [],
      "name": "pancakeswapQuoter",
      "outputs": [
        {
          "internalType": "contract pancakeswapIQuoterV2",
          "name": "",
          "type": "address"
        }
      ],
      "stateMutability": "view",
      "type": "function"
    },
    {
      "inputs": [],
      "name": "quoter",
      "outputs": [
        {
          "internalType": "contract IQuoter",
          "name": "",
          "type": "address"
        }
      ],
      "stateMutability": "view",
      "type": "function"
    },
    {
      "inputs": [],
      "name": "sushiswapQuoter",
      "outputs": [
        {
          "internalType": "contract sushiswapIQuoterV2",
          "name": "",
          "type": "address"
        }
      ],
      "stateMutability": "view",
      "type": "function"
    },
    {
      "inputs": [],
      "name": "sushiswapRouter",
      "outputs": [
        {
          "internalType": "contract ISwapRouter",
          "name": "",
          "type": "address"
        }
      ],
      "stateMutability": "view",
      "type": "function"
    },
    {
      "inputs": [],
      "name": "swapRouter",
      "outputs": [
        {
          "internalType": "contract ISwapRouter",
          "name": "",
          "type": "address"
        }
      ],
      "stateMutability": "view",
      "type": "function"
    },
    {
      "inputs": [
        {
          "internalType": "address",
          "name": "newOwner",
          "type": "address"
        }
      ],
      "name": "transferOwnerShip",
      "outputs": [],
      "stateMutability": "nonpayable",
      "type": "function"
    },
    {
      "inputs": [
        {
          "internalType": "address",
          "name": "newReceiver",
          "type": "address"
        }
      ],
      "name": "transferReceiver",
      "outputs": [],
      "stateMutability": "nonpayable",
      "type": "function"
    }
  ],
  "bytecode": "0x608060405234801561001057600080fd5b5061254f806100206000396000f3fe608060405234801561001057600080fd5b506004361061012c5760003560e01c80638863dd1a116100ad578063c72c4d1011610071578063c72c4d1014610289578063c91bc06b1461029c578063e9240c2d146102af578063f48702a7146102c2578063f6ac99d4146102d557600080fd5b80638863dd1a1461022c578063893d20e81461023f578063a59a997314610250578063c31c9c0714610263578063c6bbd5a71461027657600080fd5b80633b1db571116100f45780633b1db571146101cd5780633c12fef6146101e0578063485cc955146101f35780634aefb442146102065780637cff0d061461021957600080fd5b80631b11d0ff146101315780631e59ded314610159578063245589951461016e57806333b350451461019957806333cce2ba146101ba575b600080fd5b61014461013f366004611f9d565b6102e8565b60405190151581526020015b60405180910390f35b61016c610167366004612047565b610712565b005b600954610181906001600160a01b031681565b6040516001600160a01b039091168152602001610150565b6101ac6101a7366004612064565b6107b4565b6040516101509291906120cf565b600b54610181906001600160a01b031681565b600d54610181906001600160a01b031681565b600a54610181906001600160a01b031681565b61016c6102013660046120e3565b61087d565b600854610181906001600160a01b031681565b61016c61022736600461211c565b610b81565b61016c61023a366004612047565b610ccd565b6000546001600160a01b0316610181565b600354610181906001600160a01b031681565b600454610181906001600160a01b031681565b600654610181906001600160a01b031681565b600254610181906001600160a01b031681565b600754610181906001600160a01b031681565b600554610181906001600160a01b031681565b600c54610181906001600160a01b031681565b6101ac6102e3366004612064565b610d6f565b600061031b6040518060400160405280601081526020016f32bc32b1baba32a7b832b930ba34b7b760811b815250610e05565b6000808061032b8587018761214a565b919450925090506001600160a01b03871630146103835760405162461bcd60e51b815260206004820152601160248201527024b73b30b634b21034b734ba34b0ba37b960791b60448201526064015b60405180910390fd5b600061038f898b6121ef565b60405163095ea7b360e01b8152306004820152602481018c90529091506001600160a01b038c169063095ea7b3906044016020604051808303816000875af11580156103df573d6000803e3d6000fd5b505050506040513d601f19601f820116820180604052508101906104039190612216565b506040516370a0823160e01b81523060048201526000906001600160a01b038d16906370a0823190602401602060405180830381865afa15801561044b573d6000803e3d6000fd5b505050506040513d601f19601f8201168201806040525081019061046f9190612238565b6040805180820190915260158152741a195c99481a5cc81cddd85c0818dbdb9d1c9858dd605a1b6020820152845191925082916104ac9190610e4b565b83516104ba908d8888610e94565b90506104cf8460016020020151828789610e94565b90506105026040518060400160405280600f81526020016e18599d195c94ddd85c105b5bdd5b9d608a1b81525082610e4b565b6040516370a0823160e01b81523060048201526000906001600160a01b038f16906370a0823190602401602060405180830381865afa158015610549573d6000803e3d6000fd5b505050506040513d601f19601f8201168201806040525081019061056d9190612238565b90508381116105aa5760405162461bcd60e51b81526020600482015260096024820152681b9bc81c1c9bd99a5d60ba1b604482015260640161037a565b60405163a9059cbb60e01b8152336004820152602481018590526001600160a01b038f169063a9059cbb906044016020604051808303816000875af11580156105f7573d6000803e3d6000fd5b505050506040513d601f19601f8201168201806040525081019061061b9190612216565b506040516370a0823160e01b81523060048201526001600160a01b038f16906370a0823190602401602060405180830381865afa158015610660573d6000803e3d6000fd5b505050506040513d601f19601f820116820180604052508101906106849190612238565b60015460405163a9059cbb60e01b81526001600160a01b039182166004820152602481018390529192508f169063a9059cbb906044016020604051808303816000875af11580156106d9573d6000803e3d6000fd5b505050506040513d601f19601f820116820180604052508101906106fd9190612216565b5060019e9d5050505050505050505050505050565b6000546001600160a01b0316331461073c5760405162461bcd60e51b815260040161037a90612251565b6001600160a01b0381166107925760405162461bcd60e51b815260206004820152601d60248201527f4e6577206f776e657220697320746865207a65726f2061646472657373000000604482015260640161037a565b600180546001600160a01b0319166001600160a01b0392909216919091179055565b60006107be611f2c565b6000546001600160a01b031633146107e85760405162461bcd60e51b815260040161037a90612251565b61081f604051806040016040528060168152602001751a195c99481a5cc8195cdd1a5b585d19541c9bd99a5d60521b815250610e05565b60008061082d878787610d6f565b9150915061086f6040518060400160405280601781526020017f676574657374696d6174652069732066696e6973686564000000000000000000815250610e05565b90925090505b935093915050565b7ff0c57e16840df040f15088dc2f81fe391c3923bec73e23a9662efc9c229c6a008054600160401b810460ff16159067ffffffffffffffff166000811580156108c35750825b905060008267ffffffffffffffff1660011480156108e05750303b155b9050811580156108ee575080155b1561090c5760405163f92ee8a960e01b815260040160405180910390fd5b845467ffffffffffffffff19166001178555831561093657845460ff60401b1916600160401b1785555b600080546001600160a01b03199081166001600160a01b038a811691909117909255600180548216928916929092179091556002805473a97684ead0e402dc232d5a977953df7ecbab3cdb9216821790556040805163026b1d5f60e01b8152905163026b1d5f916004808201926020929091908290030181865afa1580156109c2573d6000803e3d6000fd5b505050506040513d601f19601f820116820180604052508101906109e69190612292565b600380546001600160a01b03929092166001600160a01b031992831617905560048054821673e592427a0aece92de3edee1f18e0157c0586156417905560068054821673b27308f9f90d607463bb33ea1bebb41c27ce5ab6179055600780548216730fc73040b26e9bc8514fa028d998e73a254fa76e179055600d80548216731f721e2e82f6676fce4ea07a5958cf098d339e1817905560088054821673b048bbc1ee6b733fffcfb9e9cef7375518e25997179055600980548216731b81d678ffb9c0263b24a97847620c99d213eb14179055600a80548216730524e833ccd057e4d7a296e3aaab9f7675964ce1179055600580548216738a21f6768c1f8075791d08546dadf6daa0be820c179055600b8054821673c6962004f452be9203591991d15f6b388e09e8d0179055600c805490911673c473e2aee3441bf9240be85eb122abb059a3b57c1790558315610b7857845460ff60401b19168555604051600181527fc7f505b2f371ae2175ee4913f4499e1f2633a7b5936321eed1cdaeb6115181d29060200160405180910390a15b50505050505050565b6000546001600160a01b03163314610bab5760405162461bcd60e51b815260040161037a90612251565b6000610bba6020830183612047565b90506000610bce6040840160208501612047565b90506040830135610bdd611f2c565b60008560600135600003610bff57610bf6858486610d6f565b92509050610c33565b610c21604051806040016040528060018152602001603160f81b815250610e05565b6080860135825260a086013560208301525b6000858584604051602001610c4a939291906122af565b60408051601f19818403018152908290526003546310ac2ddf60e21b83529092506001600160a01b0316906342b0b77c90610c929030908a908990879060009060040161231a565b600060405180830381600087803b158015610cac57600080fd5b505af1158015610cc0573d6000803e3d6000fd5b5050505050505050505050565b6000546001600160a01b03163314610cf75760405162461bcd60e51b815260040161037a90612251565b6001600160a01b038116610d4d5760405162461bcd60e51b815260206004820152601d60248201527f4e6577206f776e657220697320746865207a65726f2061646472657373000000604482015260640161037a565b600080546001600160a01b0319166001600160a01b0392909216919091179055565b6000610d79611f2c565b610d84858585610f75565b825260408051808201909152600a8152690666972737420737761760b41b6020820152909250610dbd90838360005b602002015161106f565b610dc8838387610f75565b60208084019190915260408051808201909152600b81526a07365636f6e6420737761760ac1b918101919091529092506108759083836001610db3565b610e4881604051602401610e199190612363565b60408051601f198184030181529190526020810180516001600160e01b031663104c13eb60e21b1790526110bb565b50565b610e908282604051602401610e61929190612376565b60408051601f198184030181529190526020810180516001600160e01b0316632d839cb360e21b1790526110bb565b5050565b6000610ec36040518060400160405280600c81526020016b1cddd85c081cdd185c9d195960a21b815250610e05565b84600003610edc57610ed98484846101f46110c4565b90505b84600103610ef557610ef2848484610bb86110c4565b90505b84600203610f0b57610f08848484611358565b90505b84600303610f2357610f20848484606461163b565b90505b84600403610f3c57610f398484846101f461163b565b90505b84600503610f5557610f528484846101f46118db565b90505b84600603610f6d57610f6a84848460646118db565b90505b949350505050565b60008080610f8786856101f488611b7d565b905080831015610f9957809250600091505b610fa78685610bb888611b7d565b905080831015610fb957809250600191505b610fc4868587611c43565b905080831015610fd657809250600291505b6000610fe58786606489611d03565b8051909150841015610ffa5780519350600392505b61100887866101f489611d03565b805190915084101561101d5780519350600492505b600061102d88876101f48a611e06565b80519091508510156110425780519450600593505b61104f888760648a611e06565b80519091508510156110645780519450600693505b505050935093915050565b6110b683838360405160240161108793929190612398565b60408051601f198184030181529190526020810180516001600160e01b031663ca47c4eb60e01b1790526110bb565b505050565b610e4881611f0b565b60006110f16040518060400160405280600981526020016830b6b7bab73a24b71d60b91b81525086610e4b565b6040516370a0823160e01b81523060048201526000906001600160a01b038616906370a0823190602401602060405180830381865afa158015611138573d6000803e3d6000fd5b505050506040513d601f19601f8201168201806040525081019061115c9190612238565b905061118e6040518060400160405280600e81526020016d63757272656e7442616c616e636560901b81525082610e4b565b858110156111ae5760405162461bcd60e51b815260040161037a906123bd565b6004805460405163095ea7b360e01b81526001600160a01b03918216928101929092526024820188905286169063095ea7b3906044016020604051808303816000875af1158015611203573d6000803e3d6000fd5b505050506040513d601f19601f820116820180604052508101906112279190612216565b5061124d604051806040016040528060048152602001636865726560e01b815250610e05565b60045460408051610100810182526001600160a01b038881168252878116602083015262ffffff87169282019290925230606082015291169063414bf389906080810161129c42610e106121ef565b81526020018981526020016000815260200160006001600160a01b03168152506040518263ffffffff1660e01b81526004016112d891906123e8565b6020604051808303816000875af11580156112f7573d6000803e3d6000fd5b505050506040513d601f19601f8201168201806040525081019061131b9190612238565b915061134f604051806040016040528060118152602001701cddd85c081a5cc818dbdb5c1b195d1959607a1b815250610e05565b50949350505050565b60006113856040518060400160405280600981526020016830b6b7bab73a24b71d60b91b81525085610e4b565b6040516370a0823160e01b81523060048201526000906001600160a01b038516906370a0823190602401602060405180830381865afa1580156113cc573d6000803e3d6000fd5b505050506040513d601f19601f820116820180604052508101906113f09190612238565b90506114226040518060400160405280600e81526020016d63757272656e7442616c616e636560901b81525082610e4b565b848110156114425760405162461bcd60e51b815260040161037a906123bd565b600d5460405163095ea7b360e01b81526001600160a01b039182166004820152602481018790529085169063095ea7b3906044016020604051808303816000875af1158015611495573d6000803e3d6000fd5b505050506040513d601f19601f820116820180604052508101906114b99190612216565b506114e76040518060400160405280600c81526020016b63616d656c6f74206865726560a01b815250610e05565b600d546040805160e0810182526001600160a01b0387811682528681166020830152309282019290925291169063bc651188906060810161152a42610e106121ef565b815260208082018a90526000604080840182905260609384019190915280516001600160e01b031960e087901b16815284516001600160a01b039081166004830152928501518316602482015290840151821660448201529183015160648301526080830151608483015260a083015160a483015260c09092015190911660c482015260e4016020604051808303816000875af11580156115cf573d6000803e3d6000fd5b505050506040513d601f19601f820116820180604052508101906115f39190612238565b91506116336040518060400160405280601881526020017f63616d656c6f747377617020697320636f6d706c657465640000000000000000815250610e05565b509392505050565b60006116686040518060400160405280600981526020016830b6b7bab73a24b71d60b91b81525086610e4b565b6040516370a0823160e01b81523060048201526000906001600160a01b038616906370a0823190602401602060405180830381865afa1580156116af573d6000803e3d6000fd5b505050506040513d601f19601f820116820180604052508101906116d39190612238565b90506117056040518060400160405280600e81526020016d63757272656e7442616c616e636560901b81525082610e4b565b858110156117255760405162461bcd60e51b815260040161037a906123bd565b60095460405163095ea7b360e01b81526001600160a01b039182166004820152602481018890529086169063095ea7b3906044016020604051808303816000875af1158015611778573d6000803e3d6000fd5b505050506040513d601f19601f8201168201806040525081019061179c9190612216565b506117cd6040518060400160405280600f81526020016e70616e63616b65206973206865726560881b815250610e05565b60095460408051610100810182526001600160a01b038881168252878116602083015262ffffff87169282019290925230606082015291169063414bf389906080810161181c42610e106121ef565b81526020018981526020016000815260200160006001600160a01b03168152506040518263ffffffff1660e01b815260040161185891906123e8565b6020604051808303816000875af1158015611877573d6000803e3d6000fd5b505050506040513d601f19601f8201168201806040525081019061189b9190612238565b915061134f6040518060400160405280601981526020017f70616e63616b65207377617020697320636f6d706c6574656400000000000000815250610e05565b60006119086040518060400160405280600981526020016830b6b7bab73a24b71d60b91b81525086610e4b565b6040516370a0823160e01b81523060048201526000906001600160a01b038616906370a0823190602401602060405180830381865afa15801561194f573d6000803e3d6000fd5b505050506040513d601f19601f820116820180604052508101906119739190612238565b90506119a56040518060400160405280600e81526020016d63757272656e7442616c616e636560901b81525082610e4b565b858110156119c55760405162461bcd60e51b815260040161037a906123bd565b60055460405163095ea7b360e01b81526001600160a01b039182166004820152602481018890529086169063095ea7b3906044016020604051808303816000875af1158015611a18573d6000803e3d6000fd5b505050506040513d601f19601f82011682018060405250810190611a3c9190612216565b50611a6f60405180604001604052806011815260200170737573686973776170206973206865726560781b815250610e05565b60055460408051610100810182526001600160a01b038881168252878116602083015262ffffff87169282019290925230606082015291169063414bf3899060808101611abe42610e106121ef565b81526020018981526020016000815260200160006001600160a01b03168152506040518263ffffffff1660e01b8152600401611afa91906123e8565b6020604051808303816000875af1158015611b19573d6000803e3d6000fd5b505050506040513d601f19601f82011682018060405250810190611b3d9190612238565b915061134f6040518060400160405280601781526020017f7375736869207377617020697320636f6d706c65746564000000000000000000815250610e05565b60065460405163f7729d4360e01b81526001600160a01b038681166004830152858116602483015262ffffff851660448301526064820184905260006084830181905292169063f7729d439060a4016020604051808303816000875af1158015611beb573d6000803e3d6000fd5b505050506040513d601f19601f82011682018060405250810190611c0f9190612238565b9050610f6d6040518060400160405280600a815260200169756e697377617020763360b01b8152508462ffffff168361106f565b600754604051632d9ebd1d60e01b81526001600160a01b038581166004830152848116602483015260448201849052600060648301819052928392911690632d9ebd1d9060840160408051808303816000875af1158015611ca8573d6000803e3d6000fd5b505050506040513d601f19601f82011682018060405250810190611ccc9190612452565b60408051808201909152600a81526963616d656c6f7420763360b01b602082015291935091506116339083610e4b565b9392505050565b611d0b611f4a565b6008546040805160a0810182526001600160a01b038881168252878116602083015281830186905260646060830152600060808301529151636352813560e11b8152919092169163c6a5026a91611d65919060040161247e565b6080604051808303816000875af1158015611d84573d6000803e3d6000fd5b505050506040513d601f19601f82011682018060405250810190611da891906124c7565b608085015263ffffffff1660608401526001600160a01b03166040808401919091529082528051808201909152601181527070616e63616b657377617020707269636560781b60208201528151610f6d919062ffffff86169061106f565b611e0e611f4a565b600a546040805160a0810182526001600160a01b038881168252878116602083015281830186905262ffffff87166060830152600060808301529151636352813560e11b8152919092169163c6a5026a91611e6c919060040161247e565b6080604051808303816000875af1158015611e8b573d6000803e3d6000fd5b505050506040513d601f19601f82011682018060405250810190611eaf91906124c7565b608085015263ffffffff1660608401526001600160a01b03166040808401919091529082528051808201909152600f81526e73757368697377617020707269636560881b60208201528151610f6d919062ffffff86169061106f565b60006a636f6e736f6c652e6c6f679050600080835160208501845afa505050565b60405180604001604052806002906020820280368337509192915050565b6040518060a00160405280600081526020016000815260200160006001600160a01b03168152602001600063ffffffff168152602001600081525090565b6001600160a01b0381168114610e4857600080fd5b60008060008060008060a08789031215611fb657600080fd5b8635611fc181611f88565b955060208701359450604087013593506060870135611fdf81611f88565b9250608087013567ffffffffffffffff80821115611ffc57600080fd5b818901915089601f83011261201057600080fd5b81358181111561201f57600080fd5b8a602082850101111561203157600080fd5b6020830194508093505050509295509295509295565b60006020828403121561205957600080fd5b8135611cfc81611f88565b60008060006060848603121561207957600080fd5b833561208481611f88565b925060208401359150604084013561209b81611f88565b809150509250925092565b8060005b60028110156120c95781518452602093840193909101906001016120aa565b50505050565b82815260608101611cfc60208301846120a6565b600080604083850312156120f657600080fd5b823561210181611f88565b9150602083013561211181611f88565b809150509250929050565b600060c0828403121561212e57600080fd5b50919050565b634e487b7160e01b600052604160045260246000fd5b60008060006080848603121561215f57600080fd5b833561216a81611f88565b925060208481013561217b81611f88565b9250605f8501861361218c57600080fd5b6040516040810181811067ffffffffffffffff821117156121af576121af612134565b6040528060808701888111156121c457600080fd5b604088015b818110156121e057803583529184019184016121c9565b50505080925050509250925092565b8082018082111561221057634e487b7160e01b600052601160045260246000fd5b92915050565b60006020828403121561222857600080fd5b81518015158114611cfc57600080fd5b60006020828403121561224a57600080fd5b5051919050565b60208082526021908201527f4f6e6c79206f776e65722063616e2063616c6c20746869732066756e6374696f6040820152603760f91b606082015260800190565b6000602082840312156122a457600080fd5b8151611cfc81611f88565b6001600160a01b0384811682528316602082015260808101610f6d60408301846120a6565b6000815180845260005b818110156122fa576020818501810151868301820152016122de565b506000602082860101526020601f19601f83011685010191505092915050565b6001600160a01b038681168252851660208201526040810184905260a06060820181905260009061234d908301856122d4565b905061ffff831660808301529695505050505050565b602081526000611cfc60208301846122d4565b60408152600061238960408301856122d4565b90508260208301529392505050565b6060815260006123ab60608301866122d4565b60208301949094525060400152919050565b602080825260119082015270416c6c6f77616e636520746f6f206c6f7760781b604082015260600190565b6101008101612210828480516001600160a01b03908116835260208083015182169084015260408083015162ffffff16908401526060808301518216908401526080808301519084015260a0828101519084015260c0808301519084015260e09182015116910152565b6000806040838503121561246557600080fd5b82519150602083015161ffff8116811461211157600080fd5b60a08101612210828480516001600160a01b0390811683526020808301518216908401526040808301519084015260608083015162ffffff169084015260809182015116910152565b600080600080608085870312156124dd57600080fd5b8451935060208501516124ef81611f88565b604086015190935063ffffffff8116811461250957600080fd5b606095909501519396929550505056fea264697066735822122041ca5c788e2c2f4cd08b4009e9d29a3bd90e13f60fcc46aeb70d78576ea95d2164736f6c63430008140033",
  "linkReferences": {},
  "deployedLinkReferences": {}
}